{
  "contractName": "Gotchi",
  "abi": [
    {
      "constant": true,
      "inputs": [],
      "name": "getBalance",
      "outputs": [
        {
          "name": "balance",
          "type": "uint256"
        }
      ],
      "payable": false,
      "stateMutability": "view",
      "type": "function"
    },
    {
      "constant": true,
      "inputs": [
        {
          "name": "",
          "type": "uint256"
        }
      ],
      "name": "gotchiIdUuid",
      "outputs": [
        {
          "name": "",
          "type": "uint256"
        }
      ],
      "payable": false,
      "stateMutability": "view",
      "type": "function"
    },
    {
      "constant": true,
      "inputs": [
        {
          "name": "",
          "type": "uint256"
        }
      ],
      "name": "gotchis",
      "outputs": [
        {
          "name": "keeper",
          "type": "address"
        },
        {
          "name": "id",
          "type": "uint256"
        },
        {
          "name": "lastSleep",
          "type": "uint256"
        },
        {
          "name": "lastUpdate",
          "type": "uint256"
        },
        {
          "name": "startDate",
          "type": "uint256"
        },
        {
          "name": "totalFood",
          "type": "uint32"
        },
        {
          "name": "totalGames",
          "type": "uint32"
        },
        {
          "name": "curedAmt",
          "type": "uint8"
        },
        {
          "name": "stage",
          "type": "uint8"
        }
      ],
      "payable": false,
      "stateMutability": "view",
      "type": "function"
    },
    {
      "constant": false,
      "inputs": [],
      "name": "unpause",
      "outputs": [],
      "payable": false,
      "stateMutability": "nonpayable",
      "type": "function"
    },
    {
      "constant": true,
      "inputs": [],
      "name": "paused",
      "outputs": [
        {
          "name": "",
          "type": "bool"
        }
      ],
      "payable": false,
      "stateMutability": "view",
      "type": "function"
    },
    {
      "constant": true,
      "inputs": [
        {
          "name": "",
          "type": "uint256"
        }
      ],
      "name": "gotchiHealth",
      "outputs": [
        {
          "name": "energy",
          "type": "uint32"
        },
        {
          "name": "fun",
          "type": "uint32"
        },
        {
          "name": "hunger",
          "type": "uint32"
        },
        {
          "name": "hygiene",
          "type": "uint32"
        },
        {
          "name": "poops",
          "type": "uint32"
        },
        {
          "name": "sleeping",
          "type": "bool"
        },
        {
          "name": "isImmortal",
          "type": "bool"
        }
      ],
      "payable": false,
      "stateMutability": "view",
      "type": "function"
    },
    {
      "constant": false,
      "inputs": [],
      "name": "renounceOwnership",
      "outputs": [],
      "payable": false,
      "stateMutability": "nonpayable",
      "type": "function"
    },
    {
      "constant": false,
      "inputs": [],
      "name": "pause",
      "outputs": [],
      "payable": false,
      "stateMutability": "nonpayable",
      "type": "function"
    },
    {
      "constant": false,
      "inputs": [],
      "name": "withdrawAll",
      "outputs": [],
      "payable": false,
      "stateMutability": "nonpayable",
      "type": "function"
    },
    {
      "constant": false,
      "inputs": [
        {
          "name": "_gotchiId",
          "type": "uint256"
        }
      ],
      "name": "cureGotchi",
      "outputs": [],
      "payable": true,
      "stateMutability": "payable",
      "type": "function"
    },
    {
      "constant": true,
      "inputs": [],
      "name": "owner",
      "outputs": [
        {
          "name": "",
          "type": "address"
        }
      ],
      "payable": false,
      "stateMutability": "view",
      "type": "function"
    },
    {
      "constant": true,
      "inputs": [
        {
          "name": "",
          "type": "uint256"
        }
      ],
      "name": "gotchiIdOwner",
      "outputs": [
        {
          "name": "",
          "type": "address"
        }
      ],
      "payable": false,
      "stateMutability": "view",
      "type": "function"
    },
    {
      "constant": false,
      "inputs": [
        {
          "name": "_fee",
          "type": "uint256"
        }
      ],
      "name": "setCureFee",
      "outputs": [],
      "payable": false,
      "stateMutability": "nonpayable",
      "type": "function"
    },
    {
      "constant": false,
      "inputs": [
        {
          "name": "_gotchiOwner",
          "type": "address"
        },
        {
          "name": "_gotchiId",
          "type": "uint256"
        }
      ],
      "name": "getImmortalBonus",
      "outputs": [],
      "payable": false,
      "stateMutability": "nonpayable",
      "type": "function"
    },
    {
      "constant": true,
      "inputs": [
        {
          "name": "",
          "type": "address"
        }
      ],
      "name": "ownerToImmortalCount",
      "outputs": [
        {
          "name": "",
          "type": "uint256"
        }
      ],
      "payable": false,
      "stateMutability": "view",
      "type": "function"
    },
    {
      "constant": false,
      "inputs": [
        {
          "name": "_cap",
          "type": "uint8"
        }
      ],
      "name": "setImmortalCap",
      "outputs": [],
      "payable": false,
      "stateMutability": "nonpayable",
      "type": "function"
    },
    {
      "constant": false,
      "inputs": [
        {
          "name": "_newOwner",
          "type": "address"
        }
      ],
      "name": "transferOwnership",
      "outputs": [],
      "payable": false,
      "stateMutability": "nonpayable",
      "type": "function"
    },
    {
      "inputs": [],
      "payable": false,
      "stateMutability": "nonpayable",
      "type": "constructor"
    },
    {
      "payable": true,
      "stateMutability": "payable",
      "type": "fallback"
    },
    {
      "anonymous": false,
      "inputs": [],
      "name": "Pause",
      "type": "event"
    },
    {
      "anonymous": false,
      "inputs": [],
      "name": "Unpause",
      "type": "event"
    },
    {
      "anonymous": false,
      "inputs": [
        {
          "indexed": true,
          "name": "previousOwner",
          "type": "address"
        }
      ],
      "name": "OwnershipRenounced",
      "type": "event"
    },
    {
      "anonymous": false,
      "inputs": [
        {
          "indexed": true,
          "name": "previousOwner",
          "type": "address"
        },
        {
          "indexed": true,
          "name": "newOwner",
          "type": "address"
        }
      ],
      "name": "OwnershipTransferred",
      "type": "event"
    },
    {
      "anonymous": false,
      "inputs": [
        {
          "indexed": true,
          "name": "_from",
          "type": "address"
        },
        {
          "indexed": false,
          "name": "value",
          "type": "uint256"
        }
      ],
      "name": "Deposit",
      "type": "event"
    },
    {
      "anonymous": false,
      "inputs": [
        {
          "indexed": true,
          "name": "_gotchiOwner",
          "type": "address"
        },
        {
          "indexed": true,
          "name": "_gotchiId",
          "type": "uint256"
        },
        {
          "indexed": false,
          "name": "_gotchiUuid",
          "type": "uint256"
        },
        {
          "indexed": false,
          "name": "_gotchiContract",
          "type": "address"
        }
      ],
      "name": "GotchiStarted",
      "type": "event"
    },
    {
      "anonymous": false,
      "inputs": [
        {
          "indexed": true,
          "name": "_gotchiOwner",
          "type": "address"
        },
        {
          "indexed": true,
          "name": "_gotchiId",
          "type": "uint256"
        },
        {
          "indexed": false,
          "name": "_totalGames",
          "type": "uint256"
        },
        {
          "indexed": false,
          "name": "_totalFood",
          "type": "uint256"
        }
      ],
      "name": "GotchiProgress",
      "type": "event"
    },
    {
      "anonymous": false,
      "inputs": [
        {
          "indexed": true,
          "name": "_gotchiId",
          "type": "uint256"
        }
      ],
      "name": "GotchiDied",
      "type": "event"
    },
    {
      "anonymous": false,
      "inputs": [
        {
          "indexed": true,
          "name": "_gotchiId",
          "type": "uint256"
        }
      ],
      "name": "GotchiCured",
      "type": "event"
    },
    {
      "anonymous": false,
      "inputs": [
        {
          "indexed": true,
          "name": "_gotchiOwner",
          "type": "address"
        },
        {
          "indexed": true,
          "name": "_gotchiId",
          "type": "uint256"
        }
      ],
      "name": "GotchiImmortalized",
      "type": "event"
    },
    {
      "constant": false,
      "inputs": [
        {
          "name": "_gotchiId",
          "type": "uint256"
        },
        {
          "name": "_gotchiContract",
          "type": "address"
        }
      ],
      "name": "startNewGotchi",
      "outputs": [],
      "payable": false,
      "stateMutability": "nonpayable",
      "type": "function"
    },
    {
      "constant": false,
      "inputs": [
        {
          "name": "_gotchiId",
          "type": "uint256"
        },
        {
          "name": "_lastSleep",
          "type": "uint256"
        },
        {
          "name": "_totalFood",
          "type": "uint32"
        },
        {
          "name": "_totalGames",
          "type": "uint32"
        },
        {
          "name": "_energy",
          "type": "uint32"
        },
        {
          "name": "_fun",
          "type": "uint32"
        },
        {
          "name": "_hunger",
          "type": "uint32"
        },
        {
          "name": "_hygiene",
          "type": "uint32"
        },
        {
          "name": "_poops",
          "type": "uint32"
        },
        {
          "name": "_sleeping",
          "type": "bool"
        }
      ],
      "name": "updateGotchi",
      "outputs": [],
      "payable": false,
      "stateMutability": "nonpayable",
      "type": "function"
    },
    {
      "constant": true,
      "inputs": [
        {
          "name": "_owner",
          "type": "address"
        }
      ],
      "name": "getOwnerGotchiIds",
      "outputs": [
        {
          "name": "",
          "type": "uint256[]"
        }
      ],
      "payable": false,
      "stateMutability": "view",
      "type": "function"
    },
    {
      "constant": true,
      "inputs": [
        {
          "name": "_gotchiId",
          "type": "uint256"
        }
      ],
      "name": "getGotchiUuid",
      "outputs": [
        {
          "name": "id",
          "type": "uint256"
        }
      ],
      "payable": false,
      "stateMutability": "view",
      "type": "function"
    },
    {
      "constant": true,
      "inputs": [
        {
          "name": "_gotchiId",
          "type": "uint256"
        }
      ],
      "name": "getGotchiById",
      "outputs": [
        {
          "name": "keeper",
          "type": "address"
        },
        {
          "name": "id",
          "type": "uint256"
        },
        {
          "name": "lastSleep",
          "type": "uint256"
        },
        {
          "name": "startDate",
          "type": "uint256"
        },
        {
          "name": "totalFood",
          "type": "uint32"
        },
        {
          "name": "totalGames",
          "type": "uint32"
        },
        {
          "name": "stage",
          "type": "uint8"
        },
        {
          "name": "alive",
          "type": "bool"
        }
      ],
      "payable": false,
      "stateMutability": "view",
      "type": "function"
    },
    {
      "constant": true,
      "inputs": [
        {
          "name": "_gotchiId",
          "type": "uint256"
        }
      ],
      "name": "getGotchiHealth",
      "outputs": [
        {
          "name": "energy",
          "type": "uint32"
        },
        {
          "name": "fun",
          "type": "uint32"
        },
        {
          "name": "hunger",
          "type": "uint32"
        },
        {
          "name": "hygiene",
          "type": "uint32"
        },
        {
          "name": "poops",
          "type": "uint32"
        },
        {
          "name": "sleeping",
          "type": "bool"
        },
        {
          "name": "isImmortal",
          "type": "bool"
        }
      ],
      "payable": false,
      "stateMutability": "view",
      "type": "function"
    }
  ],
  "bytecode": "0x6080604052600060065566038d7ea4c680006007556001600860006101000a81548160ff021916908360ff1602179055506000600b60146101000a81548160ff02191690831515021790555034801561005757600080fd5b5033600b60006101000a81548173ffffffffffffffffffffffffffffffffffffffff021916908373ffffffffffffffffffffffffffffffffffffffff16021790555033600c60006101000a81548173ffffffffffffffffffffffffffffffffffffffff021916908373ffffffffffffffffffffffffffffffffffffffff160217905550600061012060405190810160405280600c60009054906101000a900473ffffffffffffffffffffffffffffffffffffffff1673ffffffffffffffffffffffffffffffffffffffff16815260200160008152602001428152602001428152602001428152602001600063ffffffff168152602001600063ffffffff168152602001600060ff168152602001600060ff168152509080600181540180825580915050906001820390600052602060002090600602016000909192909190915060008201518160000160006101000a81548173ffffffffffffffffffffffffffffffffffffffff021916908373ffffffffffffffffffffffffffffffffffffffff1602179055506020820151816001015560408201518160020155606082015181600301556080820151816004015560a08201518160050160006101000a81548163ffffffff021916908363ffffffff16021790555060c08201518160050160046101000a81548163ffffffff021916908363ffffffff16021790555060e08201518160050160086101000a81548160ff021916908360ff1602179055506101008201518160050160096101000a81548160ff021916908360ff160217905550505050600160e060405190810160405280600063ffffffff168152602001600063ffffffff168152602001600063ffffffff168152602001600063ffffffff168152602001600063ffffffff1681526020016000151581526020016000151581525090806001815401808255809150509060018203906000526020600020016000909192909190915060008201518160000160006101000a81548163ffffffff021916908363ffffffff16021790555060208201518160000160046101000a81548163ffffffff021916908363ffffffff16021790555060408201518160000160086101000a81548163ffffffff021916908363ffffffff160217905550606082015181600001600c6101000a81548163ffffffff021916908363ffffffff16021790555060808201518160000160106101000a81548163ffffffff021916908363ffffffff16021790555060a08201518160000160146101000a81548160ff02191690831515021790555060c08201518160000160156101000a81548160ff0219169083151502179055505050506130ef806104356000396000f300608060405260043610610133576000357c0100000000000000000000000000000000000000000000000000000000900463ffffffff16806312065fe0146101835780632215d7a5146101ae5780632d9bf438146101ef5780632e4f40ea146102b85780633f4ba83a146102f95780635c975abb146103105780636b09ba6c1461033f578063715018a6146103ee5780638456cb5914610405578063853828b61461041c57806389aeead5146104335780638da5cb5b146104535780639c87b793146104aa578063a2118eb3146104f7578063a56ec01714610564578063b8d4578514610591578063cd7d729d14610629578063cdce037b14610676578063d0583c9814610736578063d3eab15d1461078d578063ed1fe3da14610840578063eec72b9114610870578063f2fde38b1461091f575b3373ffffffffffffffffffffffffffffffffffffffff167fe1fffcc4923d04b559f4d29a8bfc6cda04eb5b0d3c460751c2402c5c5cc9109c346040518082815260200191505060405180910390a2005b34801561018f57600080fd5b50610198610962565b6040518082815260200191505060405180910390f35b3480156101ba57600080fd5b506101d960048036038101908080359060200190929190505050610981565b6040518082815260200191505060405180910390f35b3480156101fb57600080fd5b5061021a60048036038101908080359060200190929190505050610999565b604051808a73ffffffffffffffffffffffffffffffffffffffff1673ffffffffffffffffffffffffffffffffffffffff1681526020018981526020018881526020018781526020018681526020018563ffffffff1663ffffffff1681526020018463ffffffff1663ffffffff1681526020018360ff1660ff1681526020018260ff1660ff168152602001995050505050505050505060405180910390f35b3480156102c457600080fd5b506102e360048036038101908080359060200190929190505050610a50565b6040518082815260200191505060405180910390f35b34801561030557600080fd5b5061030e610a72565b005b34801561031c57600080fd5b50610325610b32565b604051808215151515815260200191505060405180910390f35b34801561034b57600080fd5b5061036a60048036038101908080359060200190929190505050610b45565b604051808863ffffffff1663ffffffff1681526020018763ffffffff1663ffffffff1681526020018663ffffffff1663ffffffff1681526020018563ffffffff1663ffffffff1681526020018463ffffffff1663ffffffff168152602001831515151581526020018215151515815260200197505050505050505060405180910390f35b3480156103fa57600080fd5b50610403610bfc565b005b34801561041157600080fd5b5061041a610d01565b005b34801561042857600080fd5b50610431610dc2565b005b61045160048036038101908080359060200190929190505050610ea0565b005b34801561045f57600080fd5b5061046861149e565b604051808273ffffffffffffffffffffffffffffffffffffffff1673ffffffffffffffffffffffffffffffffffffffff16815260200191505060405180910390f35b3480156104b657600080fd5b506104f560048036038101908080359060200190929190803573ffffffffffffffffffffffffffffffffffffffff1690602001909291905050506114c4565b005b34801561050357600080fd5b5061052260048036038101908080359060200190929190505050611a10565b604051808273ffffffffffffffffffffffffffffffffffffffff1673ffffffffffffffffffffffffffffffffffffffff16815260200191505060405180910390f35b34801561057057600080fd5b5061058f60048036038101908080359060200190929190505050611a43565b005b34801561059d57600080fd5b506105d2600480360381019080803573ffffffffffffffffffffffffffffffffffffffff169060200190929190505050611aa9565b6040518080602001828103825283818151815260200191508051906020019060200280838360005b838110156106155780820151818401526020810190506105fa565b505050509050019250505060405180910390f35b34801561063557600080fd5b50610674600480360381019080803573ffffffffffffffffffffffffffffffffffffffff16906020019092919080359060200190929190505050611bdb565b005b34801561068257600080fd5b506106a16004803603810190808035906020019092919050505061200e565b604051808973ffffffffffffffffffffffffffffffffffffffff1673ffffffffffffffffffffffffffffffffffffffff1681526020018881526020018781526020018681526020018563ffffffff1663ffffffff1681526020018463ffffffff1663ffffffff1681526020018360ff1660ff168152602001821515151581526020019850505050505050505060405180910390f35b34801561074257600080fd5b50610777600480360381019080803573ffffffffffffffffffffffffffffffffffffffff169060200190929190505050612308565b6040518082815260200191505060405180910390f35b34801561079957600080fd5b5061083e6004803603810190808035906020019092919080359060200190929190803563ffffffff169060200190929190803563ffffffff169060200190929190803563ffffffff169060200190929190803563ffffffff169060200190929190803563ffffffff169060200190929190803563ffffffff169060200190929190803563ffffffff169060200190929190803515159060200190929190505050612320565b005b34801561084c57600080fd5b5061086e600480360381019080803560ff169060200190929190505050612aaa565b005b34801561087c57600080fd5b5061089b60048036038101908080359060200190929190505050612b24565b604051808863ffffffff1663ffffffff1681526020018763ffffffff1663ffffffff1681526020018663ffffffff1663ffffffff1681526020018563ffffffff1663ffffffff1681526020018463ffffffff1663ffffffff168152602001831515151581526020018215151515815260200197505050505050505060405180910390f35b34801561092b57600080fd5b50610960600480360381019080803573ffffffffffffffffffffffffffffffffffffffff169060200190929190505050612c8f565b005b60003073ffffffffffffffffffffffffffffffffffffffff1631905090565b60036020528060005260406000206000915090505481565b6000818154811015156109a857fe5b90600052602060002090600602016000915090508060000160009054906101000a900473ffffffffffffffffffffffffffffffffffffffff16908060010154908060020154908060030154908060040154908060050160009054906101000a900463ffffffff16908060050160049054906101000a900463ffffffff16908060050160089054906101000a900460ff16908060050160099054906101000a900460ff16905089565b6000806003600084815260200190815260200160002054905080915050919050565b600b60009054906101000a900473ffffffffffffffffffffffffffffffffffffffff1673ffffffffffffffffffffffffffffffffffffffff163373ffffffffffffffffffffffffffffffffffffffff16141515610ace57600080fd5b600b60149054906101000a900460ff161515610ae957600080fd5b6000600b60146101000a81548160ff0219169083151502179055507f7805862f689e2f13df9f062ff482ad3ad112aca9e0847911ed832e158c525b3360405160405180910390a1565b600b60149054906101000a900460ff1681565b600181815481101515610b5457fe5b906000526020600020016000915090508060000160009054906101000a900463ffffffff16908060000160049054906101000a900463ffffffff16908060000160089054906101000a900463ffffffff169080600001600c9054906101000a900463ffffffff16908060000160109054906101000a900463ffffffff16908060000160149054906101000a900460ff16908060000160159054906101000a900460ff16905087565b600b60009054906101000a900473ffffffffffffffffffffffffffffffffffffffff1673ffffffffffffffffffffffffffffffffffffffff163373ffffffffffffffffffffffffffffffffffffffff16141515610c5857600080fd5b600b60009054906101000a900473ffffffffffffffffffffffffffffffffffffffff1673ffffffffffffffffffffffffffffffffffffffff167ff8df31144d9c2f0f6b59d69b8b98abd5459d07f2742c4df920b25aae33c6482060405160405180910390a26000600b60006101000a81548173ffffffffffffffffffffffffffffffffffffffff021916908373ffffffffffffffffffffffffffffffffffffffff160217905550565b600b60009054906101000a900473ffffffffffffffffffffffffffffffffffffffff1673ffffffffffffffffffffffffffffffffffffffff163373ffffffffffffffffffffffffffffffffffffffff16141515610d5d57600080fd5b600b60149054906101000a900460ff16151515610d7957600080fd5b6001600b60146101000a81548160ff0219169083151502179055507f6985a02210a168e66602d3235cb6db0e70f92b3ba4d376a33c0f3d9434bff62560405160405180910390a1565b600b60009054906101000a900473ffffffffffffffffffffffffffffffffffffffff1673ffffffffffffffffffffffffffffffffffffffff163373ffffffffffffffffffffffffffffffffffffffff16141515610e1e57600080fd5b600560009054906101000a900473ffffffffffffffffffffffffffffffffffffffff1673ffffffffffffffffffffffffffffffffffffffff166108fc3073ffffffffffffffffffffffffffffffffffffffff16319081150290604051600060405180830381858888f19350505050158015610e9d573d6000803e3d6000fd5b50565b6000610eaa612fee565b610eb2613063565b60075434141515610ec257600080fd5b349250610eed610edc600285612cf790919063ffffffff16565b600654612d0d90919063ffffffff16565b600681905550600084815481101515610f0257fe5b906000526020600020906006020161012060405190810160405290816000820160009054906101000a900473ffffffffffffffffffffffffffffffffffffffff1673ffffffffffffffffffffffffffffffffffffffff1673ffffffffffffffffffffffffffffffffffffffff168152602001600182015481526020016002820154815260200160038201548152602001600482015481526020016005820160009054906101000a900463ffffffff1663ffffffff1663ffffffff1681526020016005820160049054906101000a900463ffffffff1663ffffffff1663ffffffff1681526020016005820160089054906101000a900460ff1660ff1660ff1681526020016005820160099054906101000a900460ff1660ff1660ff1681525050915061103e60018360e0015160ff16612d0d90919063ffffffff16565b8260e0019060ff16908160ff168152505060008260a0019063ffffffff16908163ffffffff168152505060008260c0019063ffffffff16908163ffffffff16815250508160008581548110151561109157fe5b906000526020600020906006020160008201518160000160006101000a81548173ffffffffffffffffffffffffffffffffffffffff021916908373ffffffffffffffffffffffffffffffffffffffff1602179055506020820151816001015560408201518160020155606082015181600301556080820151816004015560a08201518160050160006101000a81548163ffffffff021916908363ffffffff16021790555060c08201518160050160046101000a81548163ffffffff021916908363ffffffff16021790555060e08201518160050160086101000a81548160ff021916908360ff1602179055506101008201518160050160096101000a81548160ff021916908360ff1602179055509050506001848154811015156111b157fe5b9060005260206000200160e060405190810160405290816000820160009054906101000a900463ffffffff1663ffffffff1663ffffffff1681526020016000820160049054906101000a900463ffffffff1663ffffffff1663ffffffff1681526020016000820160089054906101000a900463ffffffff1663ffffffff1663ffffffff16815260200160008201600c9054906101000a900463ffffffff1663ffffffff1663ffffffff1681526020016000820160109054906101000a900463ffffffff1663ffffffff1663ffffffff1681526020016000820160149054906101000a900460ff161515151581526020016000820160159054906101000a900460ff16151515158152505090506001816000019063ffffffff16908163ffffffff16815250506002816020019063ffffffff16908163ffffffff16815250506001816040019063ffffffff16908163ffffffff16815250506001816060019063ffffffff16908163ffffffff16815250506000816080019063ffffffff16908163ffffffff168152505060008160a00190151590811515815250508060018581548110151561135b57fe5b9060005260206000200160008201518160000160006101000a81548163ffffffff021916908363ffffffff16021790555060208201518160000160046101000a81548163ffffffff021916908363ffffffff16021790555060408201518160000160086101000a81548163ffffffff021916908363ffffffff160217905550606082015181600001600c6101000a81548163ffffffff021916908363ffffffff16021790555060808201518160000160106101000a81548163ffffffff021916908363ffffffff16021790555060a08201518160000160146101000a81548160ff02191690831515021790555060c08201518160000160156101000a81548160ff021916908315150217905550905050837ff5010c42d0ddcee6f0d20820efab34e375d3617cc21aacdbe395dc810339b47b60405160405180910390a250505050565b600c60009054906101000a900473ffffffffffffffffffffffffffffffffffffffff1681565b6000600b60149054906101000a900460ff161515156114e257600080fd5b6000831415151561155b576040517f08c379a00000000000000000000000000000000000000000000000000000000081526004018080602001828103825260148152602001807f4944206d7573742062652073706563696669656400000000000000000000000081525060200191505060405180910390fd5b60016000610120604051908101604052803373ffffffffffffffffffffffffffffffffffffffff168152602001868152602001428152602001428152602001428152602001600063ffffffff168152602001600063ffffffff168152602001600060ff168152602001600160ff168152509080600181540180825580915050906001820390600052602060002090600602016000909192909190915060008201518160000160006101000a81548173ffffffffffffffffffffffffffffffffffffffff021916908373ffffffffffffffffffffffffffffffffffffffff1602179055506020820151816001015560408201518160020155606082015181600301556080820151816004015560a08201518160050160006101000a81548163ffffffff021916908363ffffffff16021790555060c08201518160050160046101000a81548163ffffffff021916908363ffffffff16021790555060e08201518160050160086101000a81548160ff021916908360ff1602179055506101008201518160050160096101000a81548160ff021916908360ff1602179055505050039050600160e060405190810160405280600163ffffffff168152602001600263ffffffff168152602001600163ffffffff168152602001600163ffffffff168152602001600063ffffffff1681526020016000151581526020016000151581525090806001815401808255809150509060018203906000526020600020016000909192909190915060008201518160000160006101000a81548163ffffffff021916908363ffffffff16021790555060208201518160000160046101000a81548163ffffffff021916908363ffffffff16021790555060408201518160000160086101000a81548163ffffffff021916908363ffffffff160217905550606082015181600001600c6101000a81548163ffffffff021916908363ffffffff16021790555060808201518160000160106101000a81548163ffffffff021916908363ffffffff16021790555060a08201518160000160146101000a81548160ff02191690831515021790555060c08201518160000160156101000a81548160ff021916908315150217905550505050336002600083815260200190815260200160002060006101000a81548173ffffffffffffffffffffffffffffffffffffffff021916908373ffffffffffffffffffffffffffffffffffffffff1602179055508060036000858152602001908152602001600020819055506119456001600460003373ffffffffffffffffffffffffffffffffffffffff1673ffffffffffffffffffffffffffffffffffffffff16815260200190815260200160002054612d0d90919063ffffffff16565b600460003373ffffffffffffffffffffffffffffffffffffffff1673ffffffffffffffffffffffffffffffffffffffff16815260200190815260200160002081905550823373ffffffffffffffffffffffffffffffffffffffff167f67e2c91f5af3a7e72682f7286124c4541ee61ad311339be4fa9016b4e0d689208385604051808381526020018273ffffffffffffffffffffffffffffffffffffffff1673ffffffffffffffffffffffffffffffffffffffff1681526020019250505060405180910390a3505050565b60026020528060005260406000206000915054906101000a900473ffffffffffffffffffffffffffffffffffffffff1681565b600b60009054906101000a900473ffffffffffffffffffffffffffffffffffffffff1673ffffffffffffffffffffffffffffffffffffffff163373ffffffffffffffffffffffffffffffffffffffff16141515611a9f57600080fd5b8060078190555050565b606080600080600460008673ffffffffffffffffffffffffffffffffffffffff1673ffffffffffffffffffffffffffffffffffffffff16815260200190815260200160002054604051908082528060200260200182016040528015611b1d5781602001602082028038833980820191505090505b50925060009150600090505b600080549050811015611bd0578473ffffffffffffffffffffffffffffffffffffffff166002600083815260200190815260200160002060009054906101000a900473ffffffffffffffffffffffffffffffffffffffff1673ffffffffffffffffffffffffffffffffffffffff161415611bc357808383815181101515611bac57fe5b906020019060200201818152505081806001019250505b8080600101915050611b29565b829350505050919050565b600080600183815481101515611bed57fe5b9060005260206000200160000160159054906101000a900460ff16915060009150811515611ca9576040517f08c379a00000000000000000000000000000000000000000000000000000000081526004018080602001828103825260218152602001807f496d6d6f7274616c69747920697320746865206869676865737420706c616e6581526020017f210000000000000000000000000000000000000000000000000000000000000081525060400191505060405180910390fd5b600860009054906101000a900460ff1660ff16600960008673ffffffffffffffffffffffffffffffffffffffff1673ffffffffffffffffffffffffffffffffffffffff16815260200190815260200160002054101515611d97576040517f08c379a00000000000000000000000000000000000000000000000000000000081526004018080602001828103825260218152602001807f54686520616972206f662074686520696d6d6f7274616c73206973207261726581526020017f2e0000000000000000000000000000000000000000000000000000000000000081525060400191505060405180910390fd5b60019150600a839080600181540180825580915050906001820390600052602060002001600090919290919091505550600960008573ffffffffffffffffffffffffffffffffffffffff1673ffffffffffffffffffffffffffffffffffffffff1681526020019081526020016000206000815480929190600101919050555060003073ffffffffffffffffffffffffffffffffffffffff1631111515611ea5576040517f08c379a00000000000000000000000000000000000000000000000000000000081526004018080602001828103825260138152602001807f536f7272792c207765206172652062726f6b650000000000000000000000000081525060200191505060405180910390fd5b611ebb6002600654612cf790919063ffffffff16565b905067016345785d8a000081111515611f62576040517f08c379a000000000000000000000000000000000000000000000000000000000815260040180806020018281038252602e8152602001807f536f7272792c2074686520706f6f6c2069732063757272656e746c7920746f6f81526020017f20736d616c6c20746f2073656e6400000000000000000000000000000000000081525060400191505060405180910390fd5b611f7781600654612d2990919063ffffffff16565b6006819055508373ffffffffffffffffffffffffffffffffffffffff166108fc829081150290604051600060405180830381858888f19350505050158015611fc3573d6000803e3d6000fd5b50828473ffffffffffffffffffffffffffffffffffffffff167ff1a3bbff45c47292e57a512bfe7cb0e39ced2172a71fdc5a6634f745957a721360405160405180910390a350505050565b600080600080600080600080612022612fee565b61202a613063565b60008060008d81548110151561203c57fe5b906000526020600020906006020161012060405190810160405290816000820160009054906101000a900473ffffffffffffffffffffffffffffffffffffffff1673ffffffffffffffffffffffffffffffffffffffff1673ffffffffffffffffffffffffffffffffffffffff168152602001600182015481526020016002820154815260200160038201548152602001600482015481526020016005820160009054906101000a900463ffffffff1663ffffffff1663ffffffff1681526020016005820160049054906101000a900463ffffffff1663ffffffff1663ffffffff1681526020016005820160089054906101000a900460ff1660ff1660ff1681526020016005820160099054906101000a900460ff1660ff1660ff1681525050935060018d81548110151561216c57fe5b9060005260206000200160e060405190810160405290816000820160009054906101000a900463ffffffff1663ffffffff1663ffffffff1681526020016000820160049054906101000a900463ffffffff1663ffffffff1663ffffffff1681526020016000820160089054906101000a900463ffffffff1663ffffffff1663ffffffff16815260200160008201600c9054906101000a900463ffffffff1663ffffffff1663ffffffff1681526020016000820160109054906101000a900463ffffffff1663ffffffff1663ffffffff1681526020016000820160149054906101000a900460ff161515151581526020016000820160159054906101000a900460ff16151515158152505092506122a38460400151856060015185600001518660200151876040015188606001518960800151612d42565b91506122c78461010001518460000151856020015186604001518760600151612ddc565b905083600001518460200151856040015186608001518760a001518860c0015186889b509b509b509b509b509b509b509b5050505050919395975091939597565b60096020528060005260406000206000915090505481565b612328612fee565b612330613063565b6000600b60149054906101000a900460ff1615151561234e57600080fd5b8c6002600082815260200190815260200160002060009054906101000a900473ffffffffffffffffffffffffffffffffffffffff1673ffffffffffffffffffffffffffffffffffffffff163373ffffffffffffffffffffffffffffffffffffffff16141515612425576040517f08c379a00000000000000000000000000000000000000000000000000000000081526004018080602001828103825260108152602001807f4f776e657220697320696e76616c69640000000000000000000000000000000081525060200191505060405180910390fd5b60008e1415151561249e576040517f08c379a00000000000000000000000000000000000000000000000000000000081526004018080602001828103825260148152602001807f4944206d7573742062652073706563696669656400000000000000000000000081525060200191505060405180910390fd5b60008e8154811015156124ad57fe5b906000526020600020906006020161012060405190810160405290816000820160009054906101000a900473ffffffffffffffffffffffffffffffffffffffff1673ffffffffffffffffffffffffffffffffffffffff1673ffffffffffffffffffffffffffffffffffffffff168152602001600182015481526020016002820154815260200160038201548152602001600482015481526020016005820160009054906101000a900463ffffffff1663ffffffff1663ffffffff1681526020016005820160049054906101000a900463ffffffff1663ffffffff1663ffffffff1681526020016005820160089054906101000a900460ff1660ff1660ff1681526020016005820160099054906101000a900460ff1660ff1660ff1681525050935060018e8154811015156125dd57fe5b9060005260206000200160e060405190810160405290816000820160009054906101000a900463ffffffff1663ffffffff1663ffffffff1681526020016000820160049054906101000a900463ffffffff1663ffffffff1663ffffffff1681526020016000820160089054906101000a900463ffffffff1663ffffffff1663ffffffff16815260200160008201600c9054906101000a900463ffffffff1663ffffffff1663ffffffff1681526020016000820160109054906101000a900463ffffffff1663ffffffff1663ffffffff1681526020016000820160149054906101000a900460ff161515151581526020016000820160159054906101000a900460ff161515151581525050925061270b8461010001518460000151856020015186604001518760600151612ddc565b915042846060018181525050428d178460400181815250508b8460a0019063ffffffff16908163ffffffff16815250508a8460c0019063ffffffff16908163ffffffff16815250508184610100019060ff16908160ff168152505089836000019063ffffffff16908163ffffffff168152505088836020019063ffffffff16908163ffffffff168152505087836040019063ffffffff16908163ffffffff168152505086836060019063ffffffff16908163ffffffff168152505085836080019063ffffffff16908163ffffffff1681525050848360a00190151590811515815250508360008f8154811015156127fe57fe5b906000526020600020906006020160008201518160000160006101000a81548173ffffffffffffffffffffffffffffffffffffffff021916908373ffffffffffffffffffffffffffffffffffffffff1602179055506020820151816001015560408201518160020155606082015181600301556080820151816004015560a08201518160050160006101000a81548163ffffffff021916908363ffffffff16021790555060c08201518160050160046101000a81548163ffffffff021916908363ffffffff16021790555060e08201518160050160086101000a81548160ff021916908360ff1602179055506101008201518160050160096101000a81548160ff021916908360ff1602179055509050508260018f81548110151561291f57fe5b9060005260206000200160008201518160000160006101000a81548163ffffffff021916908363ffffffff16021790555060208201518160000160046101000a81548163ffffffff021916908363ffffffff16021790555060408201518160000160086101000a81548163ffffffff021916908363ffffffff160217905550606082015181600001600c6101000a81548163ffffffff021916908363ffffffff16021790555060808201518160000160106101000a81548163ffffffff021916908363ffffffff16021790555060a08201518160000160146101000a81548160ff02191690831515021790555060c08201518160000160156101000a81548160ff0219169083151502179055509050508d3373ffffffffffffffffffffffffffffffffffffffff167f04c633c1db525840e326f435dbf0b35a35831e9c744ecfd776697a13963c15588660c001518760a00151604051808363ffffffff1681526020018263ffffffff1681526020019250505060405180910390a35050505050505050505050505050565b600b60009054906101000a900473ffffffffffffffffffffffffffffffffffffffff1673ffffffffffffffffffffffffffffffffffffffff163373ffffffffffffffffffffffffffffffffffffffff16141515612b0657600080fd5b80600860006101000a81548160ff021916908360ff16021790555050565b6000806000806000806000612b37613063565b600189815481101515612b4657fe5b9060005260206000200160e060405190810160405290816000820160009054906101000a900463ffffffff1663ffffffff1663ffffffff1681526020016000820160049054906101000a900463ffffffff1663ffffffff1663ffffffff1681526020016000820160089054906101000a900463ffffffff1663ffffffff1663ffffffff16815260200160008201600c9054906101000a900463ffffffff1663ffffffff1663ffffffff1681526020016000820160109054906101000a900463ffffffff1663ffffffff1663ffffffff1681526020016000820160149054906101000a900460ff161515151581526020016000820160159054906101000a900460ff1615151515815250509050806000015181602001518260400151836060015184608001518560a001518660c00151975097509750975097509750975050919395979092949650565b600b60009054906101000a900473ffffffffffffffffffffffffffffffffffffffff1673ffffffffffffffffffffffffffffffffffffffff163373ffffffffffffffffffffffffffffffffffffffff16141515612ceb57600080fd5b612cf481612eba565b50565b60008183811515612d0457fe5b04905092915050565b60008183019050828110151515612d2057fe5b80905092915050565b6000828211151515612d3757fe5b818303905092915050565b600080600190506203f4804203891015612d5b57600090505b60238363ffffffff161115612d6f57600090505b6202a3004203881115612dcd5760018763ffffffff161015612d9057600090505b60018663ffffffff161015612da457600090505b60018563ffffffff161015612db857600090505b60018463ffffffff161015612dcc57600090505b5b80915050979650505050505050565b600080600080600080600c94508a60ff169350612e028485612fb690919063ffffffff16565b9250612e178584612fb690919063ffffffff16565b915060009050612e368a63ffffffff1682612d0d90919063ffffffff16565b9050612e518963ffffffff1682612d0d90919063ffffffff16565b9050612e6c8863ffffffff1682612d0d90919063ffffffff16565b9050612e878763ffffffff1682612d0d90919063ffffffff16565b90508181101515612ea957612ea6600185612d0d90919063ffffffff16565b93505b839550505050505095945050505050565b600073ffffffffffffffffffffffffffffffffffffffff168173ffffffffffffffffffffffffffffffffffffffff1614151515612ef657600080fd5b8073ffffffffffffffffffffffffffffffffffffffff16600b60009054906101000a900473ffffffffffffffffffffffffffffffffffffffff1673ffffffffffffffffffffffffffffffffffffffff167f8be0079c531659141344cd1fd0a4f28419497f9722a3daafe3b4186f6b6457e060405160405180910390a380600b60006101000a81548173ffffffffffffffffffffffffffffffffffffffff021916908373ffffffffffffffffffffffffffffffffffffffff16021790555050565b600080831415612fc95760009050612fe8565b8183029050818382811515612fda57fe5b04141515612fe457fe5b8090505b92915050565b61012060405190810160405280600073ffffffffffffffffffffffffffffffffffffffff16815260200160008152602001600081526020016000815260200160008152602001600063ffffffff168152602001600063ffffffff168152602001600060ff168152602001600060ff1681525090565b60e060405190810160405280600063ffffffff168152602001600063ffffffff168152602001600063ffffffff168152602001600063ffffffff168152602001600063ffffffff16815260200160001515815260200160001515815250905600a165627a7a72305820484da9c74a0d59d001272914850d3b1a13bccea8f25594ba5df3c3573948a2150029",
  "source": "pragma solidity ^0.4.24;\n\nimport \"zeppelin-solidity/contracts/ownership/Ownable.sol\";\nimport \"zeppelin-solidity/contracts/lifecycle/Pausable.sol\";\nimport \"zeppelin-solidity/contracts/math/SafeMath.sol\";\nimport \"./GotchiBonus.sol\";\nimport \"./GotchiUtils.sol\";\n\n/**\n * @title GotchiUtils\n * @author Trevor Clarke (github.com/trevorjtclarke)\n * @dev Ownership is me, and can be transferred to\n *      another owner upon successful usage within network\n *      and for the right reasons.\n *      NOTE: Data structure & Events are split into separate contracts\n */\ncontract Gotchi is GotchiBonus, Ownable, Pausable {\n  using SafeMath for uint256;\n\n  address public owner;\n\n  /// @dev constructor, assigns ownership\n  constructor() public {\n    owner = msg.sender;\n    /// @dev no one can own the dead gotchi\n    gotchis.push(Tama(owner, 0, now, now, now, 0, 0, 0, 0));\n    gotchiHealth.push(Health(0, 0, 0, 0, 0, false, false));\n  }\n\n  //////////////////////////////////////////\n  /// Modifiers\n  //////////////////////////////////////////\n\n  /// @dev Throws if called by any account other than the owner.\n  modifier validGotchiOwner(uint _gotchiId) {\n    require(msg.sender == gotchiIdOwner[_gotchiId], 'Owner is invalid');\n    _;\n  }\n\n  //////////////////////////////////////////\n  /// Functions\n  //////////////////////////////////////////\n\n  // Fallback function accepts Ether from generous donators\n  function () public payable {\n    emit Deposit(msg.sender, msg.value);\n  }\n\n  /// @dev function to start a gotchi\n  ///   - Check that it doesn't exist\n  ///   - Check all starting info is valid\n  ///   - Can I check that user is owner of NFT? dynamic delegate call?\n  function startNewGotchi(uint256 _gotchiId, address _gotchiContract)\n    whenNotPaused\n    public {\n      require(_gotchiId != 0, 'ID must be specified');\n\n      // Assign starting gotchi data\n      uint id = gotchis.push(Tama(msg.sender, _gotchiId, now, now, now, 0, 0, 0, 1)) - 1;\n      gotchiHealth.push(Health(1, 2, 1, 1, 0, false, false));\n\n      /// @dev keep track of gotchis...\n      gotchiIdOwner[id] = msg.sender;\n      gotchiIdUuid[_gotchiId] = id;\n      ownerGotchiCount[msg.sender] = ownerGotchiCount[msg.sender].add(1);\n\n      /// @dev tell the world we started a gotchi!\n      emit GotchiStarted(msg.sender, _gotchiId, id, _gotchiContract);\n    }\n\n  /// @dev function to start a gotchi\n  ///   - goal is to use less fees however allowing updates like this is def hackable, but this is not a high value game...\n  function updateGotchi(\n      uint _gotchiId,\n      uint256 _lastSleep,\n      uint32 _totalFood,\n      uint32 _totalGames,\n      uint32 _energy,\n      uint32 _fun,\n      uint32 _hunger,\n      uint32 _hygiene,\n      uint32 _poops,\n      bool _sleeping\n    )\n    whenNotPaused\n    validGotchiOwner(_gotchiId) public {\n      require(_gotchiId != 0, 'ID must be specified');\n\n      // Get original & update\n      Tama memory g = gotchis[_gotchiId];\n      Health memory h = gotchiHealth[_gotchiId];\n\n      // TODO: Finalize simpler logic\n      /* /// @dev Validate the gotchi is alive\n      bool _isAlive = GotchiUtils.isGotchiAlive(\n        _lastSleep,\n        g.lastUpdate,\n        _energy,\n        _fun,\n        _hunger,\n        _hygiene,\n        _poops\n      );\n      if (_isAlive == false) {\n        emit GotchiDied(_gotchiId);\n        return;\n      } */\n\n      /// @dev Get gotchi stage by health factors\n      uint8 _stage = GotchiUtils.getCurrentStage(\n        g.stage,\n        h.energy,\n        h.fun,\n        h.hunger,\n        h.hygiene\n      );\n\n      /// @dev update gotchi by id\n      g.lastUpdate = now;\n      g.lastSleep = _lastSleep | now;\n      g.totalFood = _totalFood;\n      g.totalGames = _totalGames;\n      g.stage = _stage;\n      h.energy = _energy;\n      h.fun = _fun;\n      h.hunger = _hunger;\n      h.hygiene = _hygiene;\n      h.poops = _poops;\n      h.sleeping = _sleeping;\n\n      // Update values based on data passed in  \n      gotchis[_gotchiId] = g;\n      gotchiHealth[_gotchiId] = h;\n\n      /// @dev tell the world gotchi is still alive\n      emit GotchiProgress(msg.sender, _gotchiId, g.totalGames, g.totalFood);\n    }\n\n  /// @dev function to get all gotchis IDs for an owner\n  function getOwnerGotchiIds(address _owner) external view returns(uint[]) {\n    uint[] memory result = new uint[](ownerGotchiCount[_owner]);\n    uint counter = 0;\n    for (uint i = 0; i < gotchis.length; i++) {\n      if (gotchiIdOwner[i] == _owner) {\n        result[counter] = i;\n        counter++;\n      }\n    }\n    return result;\n  }\n\n  /// @dev function to get a single gotchi UUID\n  function getGotchiUuid(uint _gotchiId)\n    external view returns(uint id) {\n        uint idx = gotchiIdUuid[_gotchiId];\n        return idx;\n      }\n\n  /// @dev function to get a single gotchi based on ID\n  function getGotchiById(uint256 _gotchiId)\n    external view returns(\n        address keeper,\n        uint256 id,\n        uint256 lastSleep,\n        uint256 startDate,\n        uint32 totalFood,\n        uint32 totalGames,\n        uint8 stage,\n        bool alive\n      ) {\n        /// @dev get storage instance of gotchi\n        Tama memory g = gotchis[_gotchiId];\n        Health memory h = gotchiHealth[_gotchiId];\n\n        /// @dev Double check gotchi is still alive\n        bool _isAlive = GotchiUtils.isGotchiAlive(\n          g.lastSleep,\n          g.lastUpdate,\n          h.energy,\n          h.fun,\n          h.hunger,\n          h.hygiene,\n          h.poops\n        );\n\n        /// @dev Get gotchi stage by health factors\n        uint8 _stage = GotchiUtils.getCurrentStage(\n          g.stage,\n          h.energy,\n          h.fun,\n          h.hunger,\n          h.hygiene\n        );\n\n        return (\n          g.keeper,\n          g.id,\n          g.lastSleep,\n          g.startDate,\n          g.totalFood,\n          g.totalGames,\n          _stage,\n          _isAlive\n        );\n      }\n\n  /// @dev function to get a single gotchi based on ID\n  ///   all the health associated, since stack local variables can't be greater than 12\n  function getGotchiHealth(uint256 _gotchiId)\n    external view returns(\n        uint32 energy,\n        uint32 fun,\n        uint32 hunger,\n        uint32 hygiene,\n        uint32 poops,\n        bool sleeping,\n        bool isImmortal\n      ) {\n        /// @dev get storage instance of gotchi\n        Health memory h = gotchiHealth[_gotchiId];\n        return (\n          h.energy,\n          h.fun,\n          h.hunger,\n          h.hygiene,\n          h.poops,\n          h.sleeping,\n          h.isImmortal\n        );\n      }\n\n}\n",
  "sourcePath": "/mnt/c/Users/Bradley/broceliande/gotchi/contracts/Gotchi.sol",
  "compiler": {
    "name": "solc",
    "version": "0.4.24+commit.e67f0147.Emscripten.clang"
  },
  "schemaVersion": "2.0.1",
  "updatedAt": "2018-12-13T23:52:55.903Z"
}