{
  "contractName": "GotchiBonus",
  "abi": [
    {
      "constant": true,
      "inputs": [
        {
          "name": "",
          "type": "uint256"
        }
      ],
      "name": "gotchiIdUuid",
      "outputs": [
        {
          "name": "",
          "type": "uint256"
        }
      ],
      "payable": false,
      "stateMutability": "view",
      "type": "function"
    },
    {
      "constant": true,
      "inputs": [
        {
          "name": "",
          "type": "uint256"
        }
      ],
      "name": "gotchis",
      "outputs": [
        {
          "name": "keeper",
          "type": "address"
        },
        {
          "name": "id",
          "type": "uint256"
        },
        {
          "name": "lastSleep",
          "type": "uint256"
        },
        {
          "name": "lastUpdate",
          "type": "uint256"
        },
        {
          "name": "startDate",
          "type": "uint256"
        },
        {
          "name": "totalFood",
          "type": "uint32"
        },
        {
          "name": "totalGames",
          "type": "uint32"
        },
        {
          "name": "curedAmt",
          "type": "uint8"
        },
        {
          "name": "stage",
          "type": "uint8"
        }
      ],
      "payable": false,
      "stateMutability": "view",
      "type": "function"
    },
    {
      "constant": true,
      "inputs": [
        {
          "name": "",
          "type": "uint256"
        }
      ],
      "name": "gotchiHealth",
      "outputs": [
        {
          "name": "energy",
          "type": "uint32"
        },
        {
          "name": "fun",
          "type": "uint32"
        },
        {
          "name": "hunger",
          "type": "uint32"
        },
        {
          "name": "hygiene",
          "type": "uint32"
        },
        {
          "name": "poops",
          "type": "uint32"
        },
        {
          "name": "sleeping",
          "type": "bool"
        },
        {
          "name": "isImmortal",
          "type": "bool"
        }
      ],
      "payable": false,
      "stateMutability": "view",
      "type": "function"
    },
    {
      "constant": true,
      "inputs": [],
      "name": "owner",
      "outputs": [
        {
          "name": "",
          "type": "address"
        }
      ],
      "payable": false,
      "stateMutability": "view",
      "type": "function"
    },
    {
      "constant": true,
      "inputs": [
        {
          "name": "",
          "type": "uint256"
        }
      ],
      "name": "gotchiIdOwner",
      "outputs": [
        {
          "name": "",
          "type": "address"
        }
      ],
      "payable": false,
      "stateMutability": "view",
      "type": "function"
    },
    {
      "constant": true,
      "inputs": [
        {
          "name": "",
          "type": "address"
        }
      ],
      "name": "ownerToImmortalCount",
      "outputs": [
        {
          "name": "",
          "type": "uint256"
        }
      ],
      "payable": false,
      "stateMutability": "view",
      "type": "function"
    },
    {
      "anonymous": false,
      "inputs": [
        {
          "indexed": true,
          "name": "_from",
          "type": "address"
        },
        {
          "indexed": false,
          "name": "value",
          "type": "uint256"
        }
      ],
      "name": "Deposit",
      "type": "event"
    },
    {
      "anonymous": false,
      "inputs": [
        {
          "indexed": true,
          "name": "_gotchiOwner",
          "type": "address"
        },
        {
          "indexed": true,
          "name": "_gotchiId",
          "type": "uint256"
        },
        {
          "indexed": false,
          "name": "_gotchiUuid",
          "type": "uint256"
        },
        {
          "indexed": false,
          "name": "_gotchiContract",
          "type": "address"
        }
      ],
      "name": "GotchiStarted",
      "type": "event"
    },
    {
      "anonymous": false,
      "inputs": [
        {
          "indexed": true,
          "name": "_gotchiOwner",
          "type": "address"
        },
        {
          "indexed": true,
          "name": "_gotchiId",
          "type": "uint256"
        },
        {
          "indexed": false,
          "name": "_totalGames",
          "type": "uint256"
        },
        {
          "indexed": false,
          "name": "_totalFood",
          "type": "uint256"
        }
      ],
      "name": "GotchiProgress",
      "type": "event"
    },
    {
      "anonymous": false,
      "inputs": [
        {
          "indexed": true,
          "name": "_gotchiId",
          "type": "uint256"
        }
      ],
      "name": "GotchiDied",
      "type": "event"
    },
    {
      "anonymous": false,
      "inputs": [
        {
          "indexed": true,
          "name": "_gotchiId",
          "type": "uint256"
        }
      ],
      "name": "GotchiCured",
      "type": "event"
    },
    {
      "anonymous": false,
      "inputs": [
        {
          "indexed": true,
          "name": "_gotchiOwner",
          "type": "address"
        },
        {
          "indexed": true,
          "name": "_gotchiId",
          "type": "uint256"
        }
      ],
      "name": "GotchiImmortalized",
      "type": "event"
    },
    {
      "constant": true,
      "inputs": [],
      "name": "getBalance",
      "outputs": [
        {
          "name": "balance",
          "type": "uint256"
        }
      ],
      "payable": false,
      "stateMutability": "view",
      "type": "function"
    },
    {
      "constant": false,
      "inputs": [],
      "name": "withdrawAll",
      "outputs": [],
      "payable": false,
      "stateMutability": "nonpayable",
      "type": "function"
    },
    {
      "constant": false,
      "inputs": [
        {
          "name": "_fee",
          "type": "uint256"
        }
      ],
      "name": "setCureFee",
      "outputs": [],
      "payable": false,
      "stateMutability": "nonpayable",
      "type": "function"
    },
    {
      "constant": false,
      "inputs": [
        {
          "name": "_cap",
          "type": "uint8"
        }
      ],
      "name": "setImmortalCap",
      "outputs": [],
      "payable": false,
      "stateMutability": "nonpayable",
      "type": "function"
    },
    {
      "constant": false,
      "inputs": [
        {
          "name": "_gotchiId",
          "type": "uint256"
        }
      ],
      "name": "cureGotchi",
      "outputs": [],
      "payable": true,
      "stateMutability": "payable",
      "type": "function"
    },
    {
      "constant": false,
      "inputs": [
        {
          "name": "_gotchiOwner",
          "type": "address"
        },
        {
          "name": "_gotchiId",
          "type": "uint256"
        }
      ],
      "name": "getImmortalBonus",
      "outputs": [],
      "payable": false,
      "stateMutability": "nonpayable",
      "type": "function"
    }
  ],
  "bytecode": "0x6080604052600060065566038d7ea4c680006007556001600860006101000a81548160ff021916908360ff16021790555034801561003c57600080fd5b506113f08061004c6000396000f3006080604052600436106100ba576000357c0100000000000000000000000000000000000000000000000000000000900463ffffffff16806312065fe0146100bf5780632215d7a5146100ea5780632d9bf4381461012b5780636b09ba6c146101f4578063853828b6146102a357806389aeead5146102ba5780638da5cb5b146102da578063a2118eb314610331578063a56ec0171461039e578063cd7d729d146103cb578063d0583c9814610418578063ed1fe3da1461046f575b600080fd5b3480156100cb57600080fd5b506100d461049f565b6040518082815260200191505060405180910390f35b3480156100f657600080fd5b50610115600480360381019080803590602001909291905050506104be565b6040518082815260200191505060405180910390f35b34801561013757600080fd5b50610156600480360381019080803590602001909291905050506104d6565b604051808a73ffffffffffffffffffffffffffffffffffffffff1673ffffffffffffffffffffffffffffffffffffffff1681526020018981526020018881526020018781526020018681526020018563ffffffff1663ffffffff1681526020018463ffffffff1663ffffffff1681526020018360ff1660ff1681526020018260ff1660ff168152602001995050505050505050505060405180910390f35b34801561020057600080fd5b5061021f6004803603810190808035906020019092919050505061058d565b604051808863ffffffff1663ffffffff1681526020018763ffffffff1663ffffffff1681526020018663ffffffff1663ffffffff1681526020018563ffffffff1663ffffffff1681526020018463ffffffff1663ffffffff168152602001831515151581526020018215151515815260200197505050505050505060405180910390f35b3480156102af57600080fd5b506102b8610644565b005b6102d860048036038101908080359060200190929190505050610722565b005b3480156102e657600080fd5b506102ef610d20565b604051808273ffffffffffffffffffffffffffffffffffffffff1673ffffffffffffffffffffffffffffffffffffffff16815260200191505060405180910390f35b34801561033d57600080fd5b5061035c60048036038101908080359060200190929190505050610d46565b604051808273ffffffffffffffffffffffffffffffffffffffff1673ffffffffffffffffffffffffffffffffffffffff16815260200191505060405180910390f35b3480156103aa57600080fd5b506103c960048036038101908080359060200190929190505050610d79565b005b3480156103d757600080fd5b50610416600480360381019080803573ffffffffffffffffffffffffffffffffffffffff16906020019092919080359060200190929190505050610ddf565b005b34801561042457600080fd5b50610459600480360381019080803573ffffffffffffffffffffffffffffffffffffffff169060200190929190505050611212565b6040518082815260200191505060405180910390f35b34801561047b57600080fd5b5061049d600480360381019080803560ff16906020019092919050505061122a565b005b60003073ffffffffffffffffffffffffffffffffffffffff1631905090565b60036020528060005260406000206000915090505481565b6000818154811015156104e557fe5b90600052602060002090600602016000915090508060000160009054906101000a900473ffffffffffffffffffffffffffffffffffffffff16908060010154908060020154908060030154908060040154908060050160009054906101000a900463ffffffff16908060050160049054906101000a900463ffffffff16908060050160089054906101000a900460ff16908060050160099054906101000a900460ff16905089565b60018181548110151561059c57fe5b906000526020600020016000915090508060000160009054906101000a900463ffffffff16908060000160049054906101000a900463ffffffff16908060000160089054906101000a900463ffffffff169080600001600c9054906101000a900463ffffffff16908060000160109054906101000a900463ffffffff16908060000160149054906101000a900460ff16908060000160159054906101000a900460ff16905087565b600560009054906101000a900473ffffffffffffffffffffffffffffffffffffffff1673ffffffffffffffffffffffffffffffffffffffff163373ffffffffffffffffffffffffffffffffffffffff161415156106a057600080fd5b600560009054906101000a900473ffffffffffffffffffffffffffffffffffffffff1673ffffffffffffffffffffffffffffffffffffffff166108fc3073ffffffffffffffffffffffffffffffffffffffff16319081150290604051600060405180830381858888f1935050505015801561071f573d6000803e3d6000fd5b50565b600061072c6112ef565b610734611364565b6007543414151561074457600080fd5b34925061076f61075e6002856112a490919063ffffffff16565b6006546112ba90919063ffffffff16565b60068190555060008481548110151561078457fe5b906000526020600020906006020161012060405190810160405290816000820160009054906101000a900473ffffffffffffffffffffffffffffffffffffffff1673ffffffffffffffffffffffffffffffffffffffff1673ffffffffffffffffffffffffffffffffffffffff168152602001600182015481526020016002820154815260200160038201548152602001600482015481526020016005820160009054906101000a900463ffffffff1663ffffffff1663ffffffff1681526020016005820160049054906101000a900463ffffffff1663ffffffff1663ffffffff1681526020016005820160089054906101000a900460ff1660ff1660ff1681526020016005820160099054906101000a900460ff1660ff1660ff168152505091506108c060018360e0015160ff166112ba90919063ffffffff16565b8260e0019060ff16908160ff168152505060008260a0019063ffffffff16908163ffffffff168152505060008260c0019063ffffffff16908163ffffffff16815250508160008581548110151561091357fe5b906000526020600020906006020160008201518160000160006101000a81548173ffffffffffffffffffffffffffffffffffffffff021916908373ffffffffffffffffffffffffffffffffffffffff1602179055506020820151816001015560408201518160020155606082015181600301556080820151816004015560a08201518160050160006101000a81548163ffffffff021916908363ffffffff16021790555060c08201518160050160046101000a81548163ffffffff021916908363ffffffff16021790555060e08201518160050160086101000a81548160ff021916908360ff1602179055506101008201518160050160096101000a81548160ff021916908360ff160217905550905050600184815481101515610a3357fe5b9060005260206000200160e060405190810160405290816000820160009054906101000a900463ffffffff1663ffffffff1663ffffffff1681526020016000820160049054906101000a900463ffffffff1663ffffffff1663ffffffff1681526020016000820160089054906101000a900463ffffffff1663ffffffff1663ffffffff16815260200160008201600c9054906101000a900463ffffffff1663ffffffff1663ffffffff1681526020016000820160109054906101000a900463ffffffff1663ffffffff1663ffffffff1681526020016000820160149054906101000a900460ff161515151581526020016000820160159054906101000a900460ff16151515158152505090506001816000019063ffffffff16908163ffffffff16815250506002816020019063ffffffff16908163ffffffff16815250506001816040019063ffffffff16908163ffffffff16815250506001816060019063ffffffff16908163ffffffff16815250506000816080019063ffffffff16908163ffffffff168152505060008160a001901515908115158152505080600185815481101515610bdd57fe5b9060005260206000200160008201518160000160006101000a81548163ffffffff021916908363ffffffff16021790555060208201518160000160046101000a81548163ffffffff021916908363ffffffff16021790555060408201518160000160086101000a81548163ffffffff021916908363ffffffff160217905550606082015181600001600c6101000a81548163ffffffff021916908363ffffffff16021790555060808201518160000160106101000a81548163ffffffff021916908363ffffffff16021790555060a08201518160000160146101000a81548160ff02191690831515021790555060c08201518160000160156101000a81548160ff021916908315150217905550905050837ff5010c42d0ddcee6f0d20820efab34e375d3617cc21aacdbe395dc810339b47b60405160405180910390a250505050565b600560009054906101000a900473ffffffffffffffffffffffffffffffffffffffff1681565b60026020528060005260406000206000915054906101000a900473ffffffffffffffffffffffffffffffffffffffff1681565b600560009054906101000a900473ffffffffffffffffffffffffffffffffffffffff1673ffffffffffffffffffffffffffffffffffffffff163373ffffffffffffffffffffffffffffffffffffffff16141515610dd557600080fd5b8060078190555050565b600080600183815481101515610df157fe5b9060005260206000200160000160159054906101000a900460ff16915060009150811515610ead576040517f08c379a00000000000000000000000000000000000000000000000000000000081526004018080602001828103825260218152602001807f496d6d6f7274616c69747920697320746865206869676865737420706c616e6581526020017f210000000000000000000000000000000000000000000000000000000000000081525060400191505060405180910390fd5b600860009054906101000a900460ff1660ff16600960008673ffffffffffffffffffffffffffffffffffffffff1673ffffffffffffffffffffffffffffffffffffffff16815260200190815260200160002054101515610f9b576040517f08c379a00000000000000000000000000000000000000000000000000000000081526004018080602001828103825260218152602001807f54686520616972206f662074686520696d6d6f7274616c73206973207261726581526020017f2e0000000000000000000000000000000000000000000000000000000000000081525060400191505060405180910390fd5b60019150600a839080600181540180825580915050906001820390600052602060002001600090919290919091505550600960008573ffffffffffffffffffffffffffffffffffffffff1673ffffffffffffffffffffffffffffffffffffffff1681526020019081526020016000206000815480929190600101919050555060003073ffffffffffffffffffffffffffffffffffffffff16311115156110a9576040517f08c379a00000000000000000000000000000000000000000000000000000000081526004018080602001828103825260138152602001807f536f7272792c207765206172652062726f6b650000000000000000000000000081525060200191505060405180910390fd5b6110bf60026006546112a490919063ffffffff16565b905067016345785d8a000081111515611166576040517f08c379a000000000000000000000000000000000000000000000000000000000815260040180806020018281038252602e8152602001807f536f7272792c2074686520706f6f6c2069732063757272656e746c7920746f6f81526020017f20736d616c6c20746f2073656e6400000000000000000000000000000000000081525060400191505060405180910390fd5b61117b816006546112d690919063ffffffff16565b6006819055508373ffffffffffffffffffffffffffffffffffffffff166108fc829081150290604051600060405180830381858888f193505050501580156111c7573d6000803e3d6000fd5b50828473ffffffffffffffffffffffffffffffffffffffff167ff1a3bbff45c47292e57a512bfe7cb0e39ced2172a71fdc5a6634f745957a721360405160405180910390a350505050565b60096020528060005260406000206000915090505481565b600560009054906101000a900473ffffffffffffffffffffffffffffffffffffffff1673ffffffffffffffffffffffffffffffffffffffff163373ffffffffffffffffffffffffffffffffffffffff1614151561128657600080fd5b80600860006101000a81548160ff021916908360ff16021790555050565b600081838115156112b157fe5b04905092915050565b600081830190508281101515156112cd57fe5b80905092915050565b60008282111515156112e457fe5b818303905092915050565b61012060405190810160405280600073ffffffffffffffffffffffffffffffffffffffff16815260200160008152602001600081526020016000815260200160008152602001600063ffffffff168152602001600063ffffffff168152602001600060ff168152602001600060ff1681525090565b60e060405190810160405280600063ffffffff168152602001600063ffffffff168152602001600063ffffffff168152602001600063ffffffff168152602001600063ffffffff16815260200160001515815260200160001515815250905600a165627a7a723058208e9ec3417b64477d145aa346aa673af4e880b21627e0074a1fe57d7b57f84b6e0029",
  "source": "pragma solidity ^0.4.24;\n\nimport \"zeppelin-solidity/contracts/math/SafeMath.sol\";\nimport \"./GotchiData.sol\";\nimport \"./GotchiEvents.sol\";\n\n/**\n * @title GotchiBonus\n * @author Trevor Clarke (github.com/trevorjtclarke)\n * @dev This contract is responsible for the incentivisation & economics\n *      of the gotchi game. Based on game progress there are several cases\n *      where a gotchi can die, which will trigger a user to cure their\n *      gotchi if they wish to continue playing. The cure action results in\n *      a fee which becomes a pool of money to win later. If a gotchi\n *      becomes immortal, the fee pool then becomes divided into 50% & transferred\n *      to the gotchi owner. This should enable all (if not more!) transaction\n *      fees to be recouped by the gotchi owner.\n */\ncontract GotchiBonus is GotchiData, GotchiEvents {\n  using SafeMath for uint256;\n  using SafeMath for uint8;\n\n  /**\n   * @dev contract state, keep track of which gotchis achieved immortality\n   */\n  address public owner;\n  uint256 cureFeePool = 0;\n  uint cureFee = 0.001 ether;\n  uint8 immortalCap = 1;\n\n  mapping (address => uint) public ownerToImmortalCount;\n  uint256[] gotchiImmortals;\n\n  /**\n   * @dev Throws if called by any account other than the owner.\n   */\n  modifier onlyOwner() {\n    require(msg.sender == owner);\n    _;\n  }\n\n  /**\n   * @dev Helper function, not necessarily required, but helpful\n   */\n  function getBalance() external constant returns(uint256 balance) {\n    return address(this).balance;\n  }\n\n  /**\n   * @dev Allows the owner to remove all funds from contract. This will ruin\n   *      any future fee bonuses for other players. Be nice!\n   */\n  function withdrawAll() external onlyOwner {\n    owner.transfer(address(this).balance);\n  }\n\n  /**\n   * @dev Allows the owner to set a reasonable fee, helpful when network &\n   *      Ether market values shift over time. Be nice!\n   */\n  function setCureFee(uint _fee) external onlyOwner {\n    cureFee = _fee;\n  }\n\n  /**\n   * @dev Starts the game with a max of 1 immortal gotchi per player, but \n   *      allows the owner to raise that number when appropriate.\n   */\n  function setImmortalCap(uint8 _cap) external onlyOwner {\n    immortalCap = _cap;\n  }\n\n  /**\n   * @dev Allows users to reset the gameplay, if fee is paid\n   *      Fee is directly paid to the contract\n   *      Withdraw occurs from a 50% total pool amount\n   *      NOTE: Keeping stage, allowing user to catch back up,\n   *      just requires extra attention\n   */\n  function cureGotchi(uint256 _gotchiId) external payable {\n    require(msg.value == cureFee);\n    uint256 amount = msg.value;\n    cureFeePool = cureFeePool.add(amount.div(2));\n\n    // reset gotchi main data\n    Tama memory g = gotchis[_gotchiId];\n    g.curedAmt = uint8(g.curedAmt.add(1));\n    g.totalFood = 0;\n    g.totalGames = 0;\n    gotchis[_gotchiId] = g;\n\n    // reset gotchi reference data\n    Health memory h = gotchiHealth[_gotchiId];\n    h.energy = 1;\n    h.fun = 2;\n    h.hunger = 1;\n    h.hygiene = 1;\n    h.poops = 0;\n    h.sleeping = false;\n    gotchiHealth[_gotchiId] = h;\n\n    // Let the user know they can haz #fun again\n    emit GotchiCured(_gotchiId);\n  }\n\n  /**\n   * @dev TODO: Allows users to get a special Ether bonus upon\n   *      successfully completing the game.\n   */\n  function getImmortalBonus(address _gotchiOwner, uint256 _gotchiId) external {\n    bool immortalState = gotchiHealth[_gotchiId].isImmortal;\n    require(immortalState = false, \"Immortality is the highest plane!\");\n    require(ownerToImmortalCount[_gotchiOwner] < immortalCap, \"The air of the immortals is rare.\");\n    immortalState = true;\n    gotchiImmortals.push(_gotchiId);\n    ownerToImmortalCount[_gotchiOwner]++;\n\n    require(address(this).balance > 0, \"Sorry, we are broke\");\n    uint256 amount = cureFeePool.div(2);\n    require(amount > .1 ether, \"Sorry, the pool is currently too small to send\");\n    cureFeePool = cureFeePool.sub(amount);\n    _gotchiOwner.transfer(amount);\n    \n    // Let user know they rock!!\n    emit GotchiImmortalized(_gotchiOwner, _gotchiId);\n  }\n}\n",
  "sourcePath": "/mnt/c/Users/Bradley/broceliande/gotchi/contracts/GotchiBonus.sol",
  "compiler": {
    "name": "solc",
    "version": "0.4.24+commit.e67f0147.Emscripten.clang"
  },
  "schemaVersion": "2.0.1",
  "updatedAt": "2018-12-13T23:52:55.839Z"
}