{
  "contractName": "GotchiData",
  "abi": [
    {
      "constant": true,
      "inputs": [
        {
          "name": "",
          "type": "uint256"
        }
      ],
      "name": "gotchiIdUuid",
      "outputs": [
        {
          "name": "",
          "type": "uint256"
        }
      ],
      "payable": false,
      "stateMutability": "view",
      "type": "function"
    },
    {
      "constant": true,
      "inputs": [
        {
          "name": "",
          "type": "uint256"
        }
      ],
      "name": "gotchis",
      "outputs": [
        {
          "name": "keeper",
          "type": "address"
        },
        {
          "name": "id",
          "type": "uint256"
        },
        {
          "name": "lastSleep",
          "type": "uint256"
        },
        {
          "name": "lastUpdate",
          "type": "uint256"
        },
        {
          "name": "startDate",
          "type": "uint256"
        },
        {
          "name": "totalFood",
          "type": "uint32"
        },
        {
          "name": "totalGames",
          "type": "uint32"
        },
        {
          "name": "curedAmt",
          "type": "uint8"
        },
        {
          "name": "stage",
          "type": "uint8"
        }
      ],
      "payable": false,
      "stateMutability": "view",
      "type": "function"
    },
    {
      "constant": true,
      "inputs": [
        {
          "name": "",
          "type": "uint256"
        }
      ],
      "name": "gotchiHealth",
      "outputs": [
        {
          "name": "energy",
          "type": "uint32"
        },
        {
          "name": "fun",
          "type": "uint32"
        },
        {
          "name": "hunger",
          "type": "uint32"
        },
        {
          "name": "hygiene",
          "type": "uint32"
        },
        {
          "name": "poops",
          "type": "uint32"
        },
        {
          "name": "sleeping",
          "type": "bool"
        },
        {
          "name": "isImmortal",
          "type": "bool"
        }
      ],
      "payable": false,
      "stateMutability": "view",
      "type": "function"
    },
    {
      "constant": true,
      "inputs": [
        {
          "name": "",
          "type": "uint256"
        }
      ],
      "name": "gotchiIdOwner",
      "outputs": [
        {
          "name": "",
          "type": "address"
        }
      ],
      "payable": false,
      "stateMutability": "view",
      "type": "function"
    }
  ],
  "bytecode": "0x608060405234801561001057600080fd5b50610472806100206000396000f300608060405260043610610062576000357c0100000000000000000000000000000000000000000000000000000000900463ffffffff1680632215d7a5146100675780632d9bf438146100a85780636b09ba6c14610171578063a2118eb314610220575b600080fd5b34801561007357600080fd5b506100926004803603810190808035906020019092919050505061028d565b6040518082815260200191505060405180910390f35b3480156100b457600080fd5b506100d3600480360381019080803590602001909291905050506102a5565b604051808a73ffffffffffffffffffffffffffffffffffffffff1673ffffffffffffffffffffffffffffffffffffffff1681526020018981526020018881526020018781526020018681526020018563ffffffff1663ffffffff1681526020018463ffffffff1663ffffffff1681526020018360ff1660ff1681526020018260ff1660ff168152602001995050505050505050505060405180910390f35b34801561017d57600080fd5b5061019c6004803603810190808035906020019092919050505061035c565b604051808863ffffffff1663ffffffff1681526020018763ffffffff1663ffffffff1681526020018663ffffffff1663ffffffff1681526020018563ffffffff1663ffffffff1681526020018463ffffffff1663ffffffff168152602001831515151581526020018215151515815260200197505050505050505060405180910390f35b34801561022c57600080fd5b5061024b60048036038101908080359060200190929190505050610413565b604051808273ffffffffffffffffffffffffffffffffffffffff1673ffffffffffffffffffffffffffffffffffffffff16815260200191505060405180910390f35b60036020528060005260406000206000915090505481565b6000818154811015156102b457fe5b90600052602060002090600602016000915090508060000160009054906101000a900473ffffffffffffffffffffffffffffffffffffffff16908060010154908060020154908060030154908060040154908060050160009054906101000a900463ffffffff16908060050160049054906101000a900463ffffffff16908060050160089054906101000a900460ff16908060050160099054906101000a900460ff16905089565b60018181548110151561036b57fe5b906000526020600020016000915090508060000160009054906101000a900463ffffffff16908060000160049054906101000a900463ffffffff16908060000160089054906101000a900463ffffffff169080600001600c9054906101000a900463ffffffff16908060000160109054906101000a900463ffffffff16908060000160149054906101000a900460ff16908060000160159054906101000a900460ff16905087565b60026020528060005260406000206000915054906101000a900473ffffffffffffffffffffffffffffffffffffffff16815600a165627a7a723058207781ea6045c346a41505ba94e0da2fe1248e22ddff80a775ceb84b46cb334b7c0029",
  "source": "pragma solidity ^0.4.24;\n\n/**\n * @title GotchiData\n * @author Trevor Clarke (github.com/trevorjtclarke)\n * @dev This contract\n */\ncontract GotchiData {\n  /// @dev the data held for individual gotchi\n  struct Tama {\n    address keeper;\n    uint id;\n    uint256 lastSleep;\n    uint256 lastUpdate;\n    uint256 startDate;\n    uint32 totalFood;\n    uint32 totalGames;\n    uint8 curedAmt;\n    uint8 stage;\n  }\n\n  struct Health {\n    uint32 energy;\n    uint32 fun;\n    uint32 hunger;\n    uint32 hygiene;\n    uint32 poops;\n    bool sleeping;\n    bool isImmortal;\n  }\n\n  /// @dev keep track of active gotchis\n  Tama[] public gotchis;\n  Health[] public gotchiHealth;\n  mapping (uint => address) public gotchiIdOwner;\n  mapping (uint => uint) public gotchiIdUuid;\n  mapping (address => uint) ownerGotchiCount;\n}\n",
  "sourcePath": "/mnt/c/Users/Bradley/broceliande/gotchi/contracts/GotchiData.sol",
  "compiler": {
    "name": "solc",
    "version": "0.4.24+commit.e67f0147.Emscripten.clang"
  },
  "schemaVersion": "2.0.1",
  "updatedAt": "2018-12-13T23:52:55.714Z"
}